{
    "_format": "hh-sol-artifact-1",
    "contractName": "Wave",
    "sourceName": "contracts/Wave.sol",
    "abi": [
        {
            "inputs": [],
            "stateMutability": "nonpayable",
            "type": "constructor"
        },
        {
            "anonymous": false,
            "inputs": [
                {
                    "indexed": true,
                    "internalType": "address",
                    "name": "owner",
                    "type": "address"
                },
                {
                    "indexed": true,
                    "internalType": "address",
                    "name": "approved",
                    "type": "address"
                },
                {
                    "indexed": true,
                    "internalType": "uint256",
                    "name": "tokenId",
                    "type": "uint256"
                }
            ],
            "name": "Approval",
            "type": "event"
        },
        {
            "anonymous": false,
            "inputs": [
                {
                    "indexed": true,
                    "internalType": "address",
                    "name": "owner",
                    "type": "address"
                },
                {
                    "indexed": true,
                    "internalType": "address",
                    "name": "operator",
                    "type": "address"
                },
                {
                    "indexed": false,
                    "internalType": "bool",
                    "name": "approved",
                    "type": "bool"
                }
            ],
            "name": "ApprovalForAll",
            "type": "event"
        },
        {
            "anonymous": false,
            "inputs": [
                {
                    "indexed": false,
                    "internalType": "address",
                    "name": "sender",
                    "type": "address"
                },
                {
                    "indexed": false,
                    "internalType": "uint256",
                    "name": "tokenId",
                    "type": "uint256"
                }
            ],
            "name": "NewWaveMinted",
            "type": "event"
        },
        {
            "anonymous": false,
            "inputs": [
                {
                    "indexed": true,
                    "internalType": "address",
                    "name": "from",
                    "type": "address"
                },
                {
                    "indexed": true,
                    "internalType": "address",
                    "name": "to",
                    "type": "address"
                },
                {
                    "indexed": true,
                    "internalType": "uint256",
                    "name": "tokenId",
                    "type": "uint256"
                }
            ],
            "name": "Transfer",
            "type": "event"
        },
        {
            "inputs": [
                {
                    "internalType": "address",
                    "name": "to",
                    "type": "address"
                },
                {
                    "internalType": "uint256",
                    "name": "tokenId",
                    "type": "uint256"
                }
            ],
            "name": "approve",
            "outputs": [],
            "stateMutability": "nonpayable",
            "type": "function"
        },
        {
            "inputs": [
                {
                    "internalType": "address",
                    "name": "owner",
                    "type": "address"
                }
            ],
            "name": "balanceOf",
            "outputs": [
                {
                    "internalType": "uint256",
                    "name": "",
                    "type": "uint256"
                }
            ],
            "stateMutability": "view",
            "type": "function"
        },
        {
            "inputs": [
                {
                    "internalType": "uint256",
                    "name": "tokenId",
                    "type": "uint256"
                }
            ],
            "name": "getApproved",
            "outputs": [
                {
                    "internalType": "address",
                    "name": "",
                    "type": "address"
                }
            ],
            "stateMutability": "view",
            "type": "function"
        },
        {
            "inputs": [
                {
                    "internalType": "address",
                    "name": "owner",
                    "type": "address"
                },
                {
                    "internalType": "address",
                    "name": "operator",
                    "type": "address"
                }
            ],
            "name": "isApprovedForAll",
            "outputs": [
                {
                    "internalType": "bool",
                    "name": "",
                    "type": "bool"
                }
            ],
            "stateMutability": "view",
            "type": "function"
        },
        {
            "inputs": [
                {
                    "internalType": "string",
                    "name": "waveData",
                    "type": "string"
                },
                {
                    "internalType": "address",
                    "name": "destination",
                    "type": "address"
                }
            ],
            "name": "makeWave",
            "outputs": [],
            "stateMutability": "nonpayable",
            "type": "function"
        },
        {
            "inputs": [],
            "name": "name",
            "outputs": [
                {
                    "internalType": "string",
                    "name": "",
                    "type": "string"
                }
            ],
            "stateMutability": "view",
            "type": "function"
        },
        {
            "inputs": [
                {
                    "internalType": "uint256",
                    "name": "tokenId",
                    "type": "uint256"
                }
            ],
            "name": "ownerOf",
            "outputs": [
                {
                    "internalType": "address",
                    "name": "",
                    "type": "address"
                }
            ],
            "stateMutability": "view",
            "type": "function"
        },
        {
            "inputs": [
                {
                    "internalType": "address",
                    "name": "from",
                    "type": "address"
                },
                {
                    "internalType": "address",
                    "name": "to",
                    "type": "address"
                },
                {
                    "internalType": "uint256",
                    "name": "tokenId",
                    "type": "uint256"
                }
            ],
            "name": "safeTransferFrom",
            "outputs": [],
            "stateMutability": "nonpayable",
            "type": "function"
        },
        {
            "inputs": [
                {
                    "internalType": "address",
                    "name": "from",
                    "type": "address"
                },
                {
                    "internalType": "address",
                    "name": "to",
                    "type": "address"
                },
                {
                    "internalType": "uint256",
                    "name": "tokenId",
                    "type": "uint256"
                },
                {
                    "internalType": "bytes",
                    "name": "_data",
                    "type": "bytes"
                }
            ],
            "name": "safeTransferFrom",
            "outputs": [],
            "stateMutability": "nonpayable",
            "type": "function"
        },
        {
            "inputs": [
                {
                    "internalType": "address",
                    "name": "operator",
                    "type": "address"
                },
                {
                    "internalType": "bool",
                    "name": "approved",
                    "type": "bool"
                }
            ],
            "name": "setApprovalForAll",
            "outputs": [],
            "stateMutability": "nonpayable",
            "type": "function"
        },
        {
            "inputs": [
                {
                    "internalType": "bytes4",
                    "name": "interfaceId",
                    "type": "bytes4"
                }
            ],
            "name": "supportsInterface",
            "outputs": [
                {
                    "internalType": "bool",
                    "name": "",
                    "type": "bool"
                }
            ],
            "stateMutability": "view",
            "type": "function"
        },
        {
            "inputs": [],
            "name": "symbol",
            "outputs": [
                {
                    "internalType": "string",
                    "name": "",
                    "type": "string"
                }
            ],
            "stateMutability": "view",
            "type": "function"
        },
        {
            "inputs": [
                {
                    "internalType": "uint256",
                    "name": "tokenId",
                    "type": "uint256"
                }
            ],
            "name": "tokenURI",
            "outputs": [
                {
                    "internalType": "string",
                    "name": "",
                    "type": "string"
                }
            ],
            "stateMutability": "view",
            "type": "function"
        },
        {
            "inputs": [
                {
                    "internalType": "address",
                    "name": "from",
                    "type": "address"
                },
                {
                    "internalType": "address",
                    "name": "to",
                    "type": "address"
                },
                {
                    "internalType": "uint256",
                    "name": "tokenId",
                    "type": "uint256"
                }
            ],
            "name": "transferFrom",
            "outputs": [],
            "stateMutability": "nonpayable",
            "type": "function"
        }
    ],
    "bytecode": "0x60806040523480156200001157600080fd5b506040518060400160405280600481526020017f57617665000000000000000000000000000000000000000000000000000000008152506040518060400160405280600481526020017f5741564500000000000000000000000000000000000000000000000000000000815250816000908051906020019062000096929190620001cf565b508060019080519060200190620000af929190620001cf565b505050620000fd6040518060400160405280601881526020017f7761766520636f6e747261637420697320616c697665212100000000000000008152506200010360201b62000c321760201c565b620003ac565b620001a3816040516024016200011a9190620002c0565b6040516020818303038152906040527f41304fac000000000000000000000000000000000000000000000000000000007bffffffffffffffffffffffffffffffffffffffffffffffffffffffff19166020820180517bffffffffffffffffffffffffffffffffffffffffffffffffffffffff8381831617835250505050620001a660201b60201c565b50565b60008151905060006a636f6e736f6c652e6c6f679050602083016000808483855afa5050505050565b828054620001dd9062000336565b90600052602060002090601f0160209004810192826200020157600085556200024d565b82601f106200021c57805160ff19168380011785556200024d565b828001600101855582156200024d579182015b828111156200024c5782518255916020019190600101906200022f565b5b5090506200025c919062000260565b5090565b5b808211156200027b57600081600090555060010162000261565b5090565b60006200028c82620002e4565b620002988185620002ef565b9350620002aa81856020860162000300565b620002b5816200039b565b840191505092915050565b60006020820190508181036000830152620002dc81846200027f565b905092915050565b600081519050919050565b600082825260208201905092915050565b60005b838110156200032057808201518184015260208101905062000303565b8381111562000330576000848401525b50505050565b600060028204905060018216806200034f57607f821691505b602082108114156200036657620003656200036c565b5b50919050565b7f4e487b7100000000000000000000000000000000000000000000000000000000600052602260045260246000fd5b6000601f19601f8301169050919050565b612de780620003bc6000396000f3fe608060405234801561001057600080fd5b50600436106100ea5760003560e01c80636352211e1161008c578063a22cb46511610066578063a22cb4651461025b578063b88d4fde14610277578063c87b56dd14610293578063e985e9c5146102c3576100ea565b80636352211e146101dd57806370a082311461020d57806395d89b411461023d576100ea565b8063095ea7b3116100c8578063095ea7b31461016d57806323b872dd1461018957806334785a3b146101a557806342842e0e146101c1576100ea565b806301ffc9a7146100ef57806306fdde031461011f578063081812fc1461013d575b600080fd5b61010960048036038101906101049190611ea9565b6102f3565b6040516101169190612701565b60405180910390f35b6101276103d5565b604051610134919061271c565b60405180910390f35b61015760048036038101906101529190611f4f565b610467565b6040516101649190612671565b60405180910390f35b61018760048036038101906101829190611e6d565b6104ec565b005b6101a3600480360381019061019e9190611d67565b610604565b005b6101bf60048036038101906101ba9190611efb565b610664565b005b6101db60048036038101906101d69190611d67565b6107b8565b005b6101f760048036038101906101f29190611f4f565b6107d8565b6040516102049190612671565b60405180910390f35b61022760048036038101906102229190611d02565b61088a565b604051610234919061297c565b60405180910390f35b610245610942565b604051610252919061271c565b60405180910390f35b61027560048036038101906102709190611e31565b6109d4565b005b610291600480360381019061028c9190611db6565b6109ea565b005b6102ad60048036038101906102a89190611f4f565b610a4c565b6040516102ba919061271c565b60405180910390f35b6102dd60048036038101906102d89190611d2b565b610b9e565b6040516102ea9190612701565b60405180910390f35b60007f80ac58cd000000000000000000000000000000000000000000000000000000007bffffffffffffffffffffffffffffffffffffffffffffffffffffffff1916827bffffffffffffffffffffffffffffffffffffffffffffffffffffffff191614806103be57507f5b5e139f000000000000000000000000000000000000000000000000000000007bffffffffffffffffffffffffffffffffffffffffffffffffffffffff1916827bffffffffffffffffffffffffffffffffffffffffffffffffffffffff1916145b806103ce57506103cd82610ccb565b5b9050919050565b6060600080546103e490612bdc565b80601f016020809104026020016040519081016040528092919081815260200182805461041090612bdc565b801561045d5780601f106104325761010080835404028352916020019161045d565b820191906000526020600020905b81548152906001019060200180831161044057829003601f168201915b5050505050905090565b600061047282610d35565b6104b1576040517f08c379a00000000000000000000000000000000000000000000000000000000081526004016104a8906128dc565b60405180910390fd5b6004600083815260200190815260200160002060009054906101000a900473ffffffffffffffffffffffffffffffffffffffff169050919050565b60006104f7826107d8565b90508073ffffffffffffffffffffffffffffffffffffffff168373ffffffffffffffffffffffffffffffffffffffff161415610568576040517f08c379a000000000000000000000000000000000000000000000000000000000815260040161055f9061293c565b60405180910390fd5b8073ffffffffffffffffffffffffffffffffffffffff16610587610da1565b73ffffffffffffffffffffffffffffffffffffffff1614806105b657506105b5816105b0610da1565b610b9e565b5b6105f5576040517f08c379a00000000000000000000000000000000000000000000000000000000081526004016105ec9061281c565b60405180910390fd5b6105ff8383610da9565b505050565b61061561060f610da1565b82610e62565b610654576040517f08c379a000000000000000000000000000000000000000000000000000000000815260040161064b9061295c565b60405180910390fd5b61065f838383610f40565b505050565b6000610670600761119c565b90506000836040516020016106859190612636565b60405160208183030381529060405290506106a083836111aa565b6106aa82826111c8565b6106b4600761123c565b6106f26040518060400160405280601381526020017f2d2d2d2d2d2d776176652d7572692d2d2d2d2d00000000000000000000000000815250610c32565b6106fb81610c32565b6107396040518060400160405280601381526020017f2d2d2d2d2d2d776176652d7572692d2d2d2d2d00000000000000000000000000815250610c32565b6107796040518060400160405280601c81526020017f574156452077697468206964202573206d696e74656420746f202573000000008152508385611252565b7f47d881617d36b37f490f9b09c1749d5f6766af6f979d09c1395ed09c1916684883836040516107aa9291906126d8565b60405180910390a150505050565b6107d3838383604051806020016040528060008152506109ea565b505050565b6000806002600084815260200190815260200160002060009054906101000a900473ffffffffffffffffffffffffffffffffffffffff169050600073ffffffffffffffffffffffffffffffffffffffff168173ffffffffffffffffffffffffffffffffffffffff161415610881576040517f08c379a00000000000000000000000000000000000000000000000000000000081526004016108789061285c565b60405180910390fd5b80915050919050565b60008073ffffffffffffffffffffffffffffffffffffffff168273ffffffffffffffffffffffffffffffffffffffff1614156108fb576040517f08c379a00000000000000000000000000000000000000000000000000000000081526004016108f29061283c565b60405180910390fd5b600360008373ffffffffffffffffffffffffffffffffffffffff1673ffffffffffffffffffffffffffffffffffffffff168152602001908152602001600020549050919050565b60606001805461095190612bdc565b80601f016020809104026020016040519081016040528092919081815260200182805461097d90612bdc565b80156109ca5780601f1061099f576101008083540402835291602001916109ca565b820191906000526020600020905b8154815290600101906020018083116109ad57829003601f168201915b5050505050905090565b6109e66109df610da1565b83836112f1565b5050565b6109fb6109f5610da1565b83610e62565b610a3a576040517f08c379a0000000000000000000000000000000000000000000000000000000008152600401610a319061295c565b60405180910390fd5b610a468484848461145e565b50505050565b6060610a5782610d35565b610a96576040517f08c379a0000000000000000000000000000000000000000000000000000000008152600401610a8d906128bc565b60405180910390fd5b6000600660008481526020019081526020016000208054610ab690612bdc565b80601f0160208091040260200160405190810160405280929190818152602001828054610ae290612bdc565b8015610b2f5780601f10610b0457610100808354040283529160200191610b2f565b820191906000526020600020905b815481529060010190602001808311610b1257829003601f168201915b505050505090506000610b406114ba565b9050600081511415610b56578192505050610b99565b600082511115610b8b578082604051602001610b7392919061264d565b60405160208183030381529060405292505050610b99565b610b94846114d1565b925050505b919050565b6000600560008473ffffffffffffffffffffffffffffffffffffffff1673ffffffffffffffffffffffffffffffffffffffff16815260200190815260200160002060008373ffffffffffffffffffffffffffffffffffffffff1673ffffffffffffffffffffffffffffffffffffffff16815260200190815260200160002060009054906101000a900460ff16905092915050565b610cc881604051602401610c46919061271c565b6040516020818303038152906040527f41304fac000000000000000000000000000000000000000000000000000000007bffffffffffffffffffffffffffffffffffffffffffffffffffffffff19166020820180517bffffffffffffffffffffffffffffffffffffffffffffffffffffffff8381831617835250505050611578565b50565b60007f01ffc9a7000000000000000000000000000000000000000000000000000000007bffffffffffffffffffffffffffffffffffffffffffffffffffffffff1916827bffffffffffffffffffffffffffffffffffffffffffffffffffffffff1916149050919050565b60008073ffffffffffffffffffffffffffffffffffffffff166002600084815260200190815260200160002060009054906101000a900473ffffffffffffffffffffffffffffffffffffffff1673ffffffffffffffffffffffffffffffffffffffff1614159050919050565b600033905090565b816004600083815260200190815260200160002060006101000a81548173ffffffffffffffffffffffffffffffffffffffff021916908373ffffffffffffffffffffffffffffffffffffffff160217905550808273ffffffffffffffffffffffffffffffffffffffff16610e1c836107d8565b73ffffffffffffffffffffffffffffffffffffffff167f8c5be1e5ebec7d5bd14f71427d1e84f3dd0314c0f7b2291e5b200ac8c7c3b92560405160405180910390a45050565b6000610e6d82610d35565b610eac576040517f08c379a0000000000000000000000000000000000000000000000000000000008152600401610ea3906127fc565b60405180910390fd5b6000610eb7836107d8565b90508073ffffffffffffffffffffffffffffffffffffffff168473ffffffffffffffffffffffffffffffffffffffff161480610f2657508373ffffffffffffffffffffffffffffffffffffffff16610f0e84610467565b73ffffffffffffffffffffffffffffffffffffffff16145b80610f375750610f368185610b9e565b5b91505092915050565b8273ffffffffffffffffffffffffffffffffffffffff16610f60826107d8565b73ffffffffffffffffffffffffffffffffffffffff1614610fb6576040517f08c379a0000000000000000000000000000000000000000000000000000000008152600401610fad906128fc565b60405180910390fd5b600073ffffffffffffffffffffffffffffffffffffffff168273ffffffffffffffffffffffffffffffffffffffff161415611026576040517f08c379a000000000000000000000000000000000000000000000000000000000815260040161101d906127bc565b60405180910390fd5b6110318383836115a1565b61103c600082610da9565b6001600360008573ffffffffffffffffffffffffffffffffffffffff1673ffffffffffffffffffffffffffffffffffffffff168152602001908152602001600020600082825461108c9190612af2565b925050819055506001600360008473ffffffffffffffffffffffffffffffffffffffff1673ffffffffffffffffffffffffffffffffffffffff16815260200190815260200160002060008282546110e39190612a6b565b92505081905550816002600083815260200190815260200160002060006101000a81548173ffffffffffffffffffffffffffffffffffffffff021916908373ffffffffffffffffffffffffffffffffffffffff160217905550808273ffffffffffffffffffffffffffffffffffffffff168473ffffffffffffffffffffffffffffffffffffffff167fddf252ad1be2c89b69c2b068fc378daa952ba7f163c4a11628f55a4df523b3ef60405160405180910390a4505050565b600081600001549050919050565b6111c48282604051806020016040528060008152506115a6565b5050565b6111d182610d35565b611210576040517f08c379a00000000000000000000000000000000000000000000000000000000081526004016112079061287c565b60405180910390fd5b80600660008481526020019081526020016000209080519060200190611237929190611b26565b505050565b6001816000016000828254019250508190555050565b6112ec83838360405160240161126a9392919061273e565b6040516020818303038152906040527fe3849f79000000000000000000000000000000000000000000000000000000007bffffffffffffffffffffffffffffffffffffffffffffffffffffffff19166020820180517bffffffffffffffffffffffffffffffffffffffffffffffffffffffff8381831617835250505050611578565b505050565b8173ffffffffffffffffffffffffffffffffffffffff168373ffffffffffffffffffffffffffffffffffffffff161415611360576040517f08c379a0000000000000000000000000000000000000000000000000000000008152600401611357906127dc565b60405180910390fd5b80600560008573ffffffffffffffffffffffffffffffffffffffff1673ffffffffffffffffffffffffffffffffffffffff16815260200190815260200160002060008473ffffffffffffffffffffffffffffffffffffffff1673ffffffffffffffffffffffffffffffffffffffff16815260200190815260200160002060006101000a81548160ff0219169083151502179055508173ffffffffffffffffffffffffffffffffffffffff168373ffffffffffffffffffffffffffffffffffffffff167f17307eab39ab6107e8899845ad3d59bd9653f200f220920489ca2b5937696c31836040516114519190612701565b60405180910390a3505050565b611469848484610f40565b61147584848484611601565b6114b4576040517f08c379a00000000000000000000000000000000000000000000000000000000081526004016114ab9061277c565b60405180910390fd5b50505050565b606060405180602001604052806000815250905090565b60606114dc82610d35565b61151b576040517f08c379a00000000000000000000000000000000000000000000000000000000081526004016115129061291c565b60405180910390fd5b60006115256114ba565b905060008151116115455760405180602001604052806000815250611570565b8061154f84611798565b60405160200161156092919061264d565b6040516020818303038152906040525b915050919050565b60008151905060006a636f6e736f6c652e6c6f679050602083016000808483855afa5050505050565b505050565b6115b08383611945565b6115bd6000848484611601565b6115fc576040517f08c379a00000000000000000000000000000000000000000000000000000000081526004016115f39061277c565b60405180910390fd5b505050565b60006116228473ffffffffffffffffffffffffffffffffffffffff16611b13565b1561178b578373ffffffffffffffffffffffffffffffffffffffff1663150b7a0261164b610da1565b8786866040518563ffffffff1660e01b815260040161166d949392919061268c565b602060405180830381600087803b15801561168757600080fd5b505af19250505080156116b857506040513d601f19601f820116820180604052508101906116b59190611ed2565b60015b61173b573d80600081146116e8576040519150601f19603f3d011682016040523d82523d6000602084013e6116ed565b606091505b50600081511415611733576040517f08c379a000000000000000000000000000000000000000000000000000000000815260040161172a9061277c565b60405180910390fd5b805181602001fd5b63150b7a0260e01b7bffffffffffffffffffffffffffffffffffffffffffffffffffffffff1916817bffffffffffffffffffffffffffffffffffffffffffffffffffffffff191614915050611790565b600190505b949350505050565b606060008214156117e0576040518060400160405280600181526020017f30000000000000000000000000000000000000000000000000000000000000008152509050611940565b600082905060005b600082146118125780806117fb90612c0e565b915050600a8261180b9190612ac1565b91506117e8565b60008167ffffffffffffffff811115611854577f4e487b7100000000000000000000000000000000000000000000000000000000600052604160045260246000fd5b6040519080825280601f01601f1916602001820160405280156118865781602001600182028036833780820191505090505b5090505b600085146119395760018261189f9190612af2565b9150600a856118ae9190612c57565b60306118ba9190612a6b565b60f81b8183815181106118f6577f4e487b7100000000000000000000000000000000000000000000000000000000600052603260045260246000fd5b60200101907effffffffffffffffffffffffffffffffffffffffffffffffffffffffffffff1916908160001a905350600a856119329190612ac1565b945061188a565b8093505050505b919050565b600073ffffffffffffffffffffffffffffffffffffffff168273ffffffffffffffffffffffffffffffffffffffff1614156119b5576040517f08c379a00000000000000000000000000000000000000000000000000000000081526004016119ac9061289c565b60405180910390fd5b6119be81610d35565b156119fe576040517f08c379a00000000000000000000000000000000000000000000000000000000081526004016119f59061279c565b60405180910390fd5b611a0a600083836115a1565b6001600360008473ffffffffffffffffffffffffffffffffffffffff1673ffffffffffffffffffffffffffffffffffffffff1681526020019081526020016000206000828254611a5a9190612a6b565b92505081905550816002600083815260200190815260200160002060006101000a81548173ffffffffffffffffffffffffffffffffffffffff021916908373ffffffffffffffffffffffffffffffffffffffff160217905550808273ffffffffffffffffffffffffffffffffffffffff16600073ffffffffffffffffffffffffffffffffffffffff167fddf252ad1be2c89b69c2b068fc378daa952ba7f163c4a11628f55a4df523b3ef60405160405180910390a45050565b600080823b905060008111915050919050565b828054611b3290612bdc565b90600052602060002090601f016020900481019282611b545760008555611b9b565b82601f10611b6d57805160ff1916838001178555611b9b565b82800160010185558215611b9b579182015b82811115611b9a578251825591602001919060010190611b7f565b5b509050611ba89190611bac565b5090565b5b80821115611bc5576000816000905550600101611bad565b5090565b6000611bdc611bd7846129c8565b612997565b905082815260208101848484011115611bf457600080fd5b611bff848285612b9a565b509392505050565b6000611c1a611c15846129f8565b612997565b905082815260208101848484011115611c3257600080fd5b611c3d848285612b9a565b509392505050565b600081359050611c5481612d55565b92915050565b600081359050611c6981612d6c565b92915050565b600081359050611c7e81612d83565b92915050565b600081519050611c9381612d83565b92915050565b600082601f830112611caa57600080fd5b8135611cba848260208601611bc9565b91505092915050565b600082601f830112611cd457600080fd5b8135611ce4848260208601611c07565b91505092915050565b600081359050611cfc81612d9a565b92915050565b600060208284031215611d1457600080fd5b6000611d2284828501611c45565b91505092915050565b60008060408385031215611d3e57600080fd5b6000611d4c85828601611c45565b9250506020611d5d85828601611c45565b9150509250929050565b600080600060608486031215611d7c57600080fd5b6000611d8a86828701611c45565b9350506020611d9b86828701611c45565b9250506040611dac86828701611ced565b9150509250925092565b60008060008060808587031215611dcc57600080fd5b6000611dda87828801611c45565b9450506020611deb87828801611c45565b9350506040611dfc87828801611ced565b925050606085013567ffffffffffffffff811115611e1957600080fd5b611e2587828801611c99565b91505092959194509250565b60008060408385031215611e4457600080fd5b6000611e5285828601611c45565b9250506020611e6385828601611c5a565b9150509250929050565b60008060408385031215611e8057600080fd5b6000611e8e85828601611c45565b9250506020611e9f85828601611ced565b9150509250929050565b600060208284031215611ebb57600080fd5b6000611ec984828501611c6f565b91505092915050565b600060208284031215611ee457600080fd5b6000611ef284828501611c84565b91505092915050565b60008060408385031215611f0e57600080fd5b600083013567ffffffffffffffff811115611f2857600080fd5b611f3485828601611cc3565b9250506020611f4585828601611c45565b9150509250929050565b600060208284031215611f6157600080fd5b6000611f6f84828501611ced565b91505092915050565b611f8181612b26565b82525050565b611f9081612b38565b82525050565b6000611fa182612a28565b611fab8185612a3e565b9350611fbb818560208601612ba9565b611fc481612d44565b840191505092915050565b6000611fda82612a33565b611fe48185612a4f565b9350611ff4818560208601612ba9565b611ffd81612d44565b840191505092915050565b600061201382612a33565b61201d8185612a60565b935061202d818560208601612ba9565b80840191505092915050565b6000612046603283612a4f565b91507f4552433732313a207472616e7366657220746f206e6f6e20455243373231526560008301527f63656976657220696d706c656d656e74657200000000000000000000000000006020830152604082019050919050565b60006120ac601c83612a4f565b91507f4552433732313a20746f6b656e20616c7265616479206d696e746564000000006000830152602082019050919050565b60006120ec602483612a4f565b91507f4552433732313a207472616e7366657220746f20746865207a65726f2061646460008301527f72657373000000000000000000000000000000000000000000000000000000006020830152604082019050919050565b6000612152601983612a4f565b91507f4552433732313a20617070726f766520746f2063616c6c6572000000000000006000830152602082019050919050565b6000612192602c83612a4f565b91507f4552433732313a206f70657261746f7220717565727920666f72206e6f6e657860008301527f697374656e7420746f6b656e00000000000000000000000000000000000000006020830152604082019050919050565b60006121f8603883612a4f565b91507f4552433732313a20617070726f76652063616c6c6572206973206e6f74206f7760008301527f6e6572206e6f7220617070726f76656420666f7220616c6c00000000000000006020830152604082019050919050565b600061225e602a83612a4f565b91507f4552433732313a2062616c616e636520717565727920666f7220746865207a6560008301527f726f2061646472657373000000000000000000000000000000000000000000006020830152604082019050919050565b60006122c4602983612a4f565b91507f4552433732313a206f776e657220717565727920666f72206e6f6e657869737460008301527f656e7420746f6b656e00000000000000000000000000000000000000000000006020830152604082019050919050565b600061232a602e83612a4f565b91507f45524337323155524953746f726167653a2055524920736574206f66206e6f6e60008301527f6578697374656e7420746f6b656e0000000000000000000000000000000000006020830152604082019050919050565b6000612390602083612a4f565b91507f4552433732313a206d696e7420746f20746865207a65726f20616464726573736000830152602082019050919050565b60006123d0603183612a4f565b91507f45524337323155524953746f726167653a2055524920717565727920666f722060008301527f6e6f6e6578697374656e7420746f6b656e0000000000000000000000000000006020830152604082019050919050565b6000612436602c83612a4f565b91507f4552433732313a20617070726f76656420717565727920666f72206e6f6e657860008301527f697374656e7420746f6b656e00000000000000000000000000000000000000006020830152604082019050919050565b600061249c602983612a4f565b91507f4552433732313a207472616e73666572206f6620746f6b656e2074686174206960008301527f73206e6f74206f776e00000000000000000000000000000000000000000000006020830152604082019050919050565b6000612502602f83612a4f565b91507f4552433732314d657461646174613a2055524920717565727920666f72206e6f60008301527f6e6578697374656e7420746f6b656e00000000000000000000000000000000006020830152604082019050919050565b6000612568602183612a4f565b91507f4552433732313a20617070726f76616c20746f2063757272656e74206f776e6560008301527f72000000000000000000000000000000000000000000000000000000000000006020830152604082019050919050565b60006125ce603183612a4f565b91507f4552433732313a207472616e736665722063616c6c6572206973206e6f74206f60008301527f776e6572206e6f7220617070726f7665640000000000000000000000000000006020830152604082019050919050565b61263081612b90565b82525050565b60006126428284612008565b915081905092915050565b60006126598285612008565b91506126658284612008565b91508190509392505050565b60006020820190506126866000830184611f78565b92915050565b60006080820190506126a16000830187611f78565b6126ae6020830186611f78565b6126bb6040830185612627565b81810360608301526126cd8184611f96565b905095945050505050565b60006040820190506126ed6000830185611f78565b6126fa6020830184612627565b9392505050565b60006020820190506127166000830184611f87565b92915050565b600060208201905081810360008301526127368184611fcf565b905092915050565b600060608201905081810360008301526127588186611fcf565b90506127676020830185612627565b6127746040830184611f78565b949350505050565b6000602082019050818103600083015261279581612039565b9050919050565b600060208201905081810360008301526127b58161209f565b9050919050565b600060208201905081810360008301526127d5816120df565b9050919050565b600060208201905081810360008301526127f581612145565b9050919050565b6000602082019050818103600083015261281581612185565b9050919050565b60006020820190508181036000830152612835816121eb565b9050919050565b6000602082019050818103600083015261285581612251565b9050919050565b60006020820190508181036000830152612875816122b7565b9050919050565b600060208201905081810360008301526128958161231d565b9050919050565b600060208201905081810360008301526128b581612383565b9050919050565b600060208201905081810360008301526128d5816123c3565b9050919050565b600060208201905081810360008301526128f581612429565b9050919050565b600060208201905081810360008301526129158161248f565b9050919050565b60006020820190508181036000830152612935816124f5565b9050919050565b600060208201905081810360008301526129558161255b565b9050919050565b60006020820190508181036000830152612975816125c1565b9050919050565b60006020820190506129916000830184612627565b92915050565b6000604051905081810181811067ffffffffffffffff821117156129be576129bd612d15565b5b8060405250919050565b600067ffffffffffffffff8211156129e3576129e2612d15565b5b601f19601f8301169050602081019050919050565b600067ffffffffffffffff821115612a1357612a12612d15565b5b601f19601f8301169050602081019050919050565b600081519050919050565b600081519050919050565b600082825260208201905092915050565b600082825260208201905092915050565b600081905092915050565b6000612a7682612b90565b9150612a8183612b90565b9250827fffffffffffffffffffffffffffffffffffffffffffffffffffffffffffffffff03821115612ab657612ab5612c88565b5b828201905092915050565b6000612acc82612b90565b9150612ad783612b90565b925082612ae757612ae6612cb7565b5b828204905092915050565b6000612afd82612b90565b9150612b0883612b90565b925082821015612b1b57612b1a612c88565b5b828203905092915050565b6000612b3182612b70565b9050919050565b60008115159050919050565b60007fffffffff0000000000000000000000000000000000000000000000000000000082169050919050565b600073ffffffffffffffffffffffffffffffffffffffff82169050919050565b6000819050919050565b82818337600083830152505050565b60005b83811015612bc7578082015181840152602081019050612bac565b83811115612bd6576000848401525b50505050565b60006002820490506001821680612bf457607f821691505b60208210811415612c0857612c07612ce6565b5b50919050565b6000612c1982612b90565b91507fffffffffffffffffffffffffffffffffffffffffffffffffffffffffffffffff821415612c4c57612c4b612c88565b5b600182019050919050565b6000612c6282612b90565b9150612c6d83612b90565b925082612c7d57612c7c612cb7565b5b828206905092915050565b7f4e487b7100000000000000000000000000000000000000000000000000000000600052601160045260246000fd5b7f4e487b7100000000000000000000000000000000000000000000000000000000600052601260045260246000fd5b7f4e487b7100000000000000000000000000000000000000000000000000000000600052602260045260246000fd5b7f4e487b7100000000000000000000000000000000000000000000000000000000600052604160045260246000fd5b6000601f19601f8301169050919050565b612d5e81612b26565b8114612d6957600080fd5b50565b612d7581612b38565b8114612d8057600080fd5b50565b612d8c81612b44565b8114612d9757600080fd5b50565b612da381612b90565b8114612dae57600080fd5b5056fea2646970667358221220587db70756dfa90f7fc0c95e2a7ac1f19fa9aa8088c3096b1c56229156ad5b3a64736f6c63430008000033",
    "linkReferences": {},
    "deployedLinkReferences": {}
}