{
  "_format": "hh-sol-artifact-1",
  "contractName": "Wave",
  "sourceName": "contracts/Wave.sol",
  "abi": [
    {
      "inputs": [],
      "stateMutability": "nonpayable",
      "type": "constructor"
    },
    {
      "anonymous": false,
      "inputs": [
        {
          "indexed": true,
          "internalType": "address",
          "name": "owner",
          "type": "address"
        },
        {
          "indexed": true,
          "internalType": "address",
          "name": "approved",
          "type": "address"
        },
        {
          "indexed": true,
          "internalType": "uint256",
          "name": "tokenId",
          "type": "uint256"
        }
      ],
      "name": "Approval",
      "type": "event"
    },
    {
      "anonymous": false,
      "inputs": [
        {
          "indexed": true,
          "internalType": "address",
          "name": "owner",
          "type": "address"
        },
        {
          "indexed": true,
          "internalType": "address",
          "name": "operator",
          "type": "address"
        },
        {
          "indexed": false,
          "internalType": "bool",
          "name": "approved",
          "type": "bool"
        }
      ],
      "name": "ApprovalForAll",
      "type": "event"
    },
    {
      "anonymous": false,
      "inputs": [
        {
          "indexed": false,
          "internalType": "address",
          "name": "_destination",
          "type": "address"
        },
        {
          "indexed": false,
          "internalType": "uint256",
          "name": "_tokenId",
          "type": "uint256"
        }
      ],
      "name": "NewWaveMinted",
      "type": "event"
    },
    {
      "anonymous": false,
      "inputs": [
        {
          "indexed": true,
          "internalType": "address",
          "name": "from",
          "type": "address"
        },
        {
          "indexed": true,
          "internalType": "address",
          "name": "to",
          "type": "address"
        },
        {
          "indexed": true,
          "internalType": "uint256",
          "name": "tokenId",
          "type": "uint256"
        }
      ],
      "name": "Transfer",
      "type": "event"
    },
    {
      "anonymous": false,
      "inputs": [
        {
          "indexed": false,
          "internalType": "address",
          "name": "_burnedBy",
          "type": "address"
        },
        {
          "indexed": false,
          "internalType": "uint256",
          "name": "_tokenId",
          "type": "uint256"
        }
      ],
      "name": "WaveBurned",
      "type": "event"
    },
    {
      "inputs": [
        {
          "internalType": "address",
          "name": "to",
          "type": "address"
        },
        {
          "internalType": "uint256",
          "name": "tokenId",
          "type": "uint256"
        }
      ],
      "name": "approve",
      "outputs": [],
      "stateMutability": "nonpayable",
      "type": "function"
    },
    {
      "inputs": [
        {
          "internalType": "address",
          "name": "owner",
          "type": "address"
        }
      ],
      "name": "balanceOf",
      "outputs": [
        {
          "internalType": "uint256",
          "name": "",
          "type": "uint256"
        }
      ],
      "stateMutability": "view",
      "type": "function"
    },
    {
      "inputs": [
        {
          "internalType": "uint256",
          "name": "_tokenId",
          "type": "uint256"
        }
      ],
      "name": "burnWave",
      "outputs": [],
      "stateMutability": "nonpayable",
      "type": "function"
    },
    {
      "inputs": [
        {
          "internalType": "uint256",
          "name": "tokenId",
          "type": "uint256"
        }
      ],
      "name": "getApproved",
      "outputs": [
        {
          "internalType": "address",
          "name": "",
          "type": "address"
        }
      ],
      "stateMutability": "view",
      "type": "function"
    },
    {
      "inputs": [
        {
          "internalType": "address",
          "name": "owner",
          "type": "address"
        },
        {
          "internalType": "address",
          "name": "operator",
          "type": "address"
        }
      ],
      "name": "isApprovedForAll",
      "outputs": [
        {
          "internalType": "bool",
          "name": "",
          "type": "bool"
        }
      ],
      "stateMutability": "view",
      "type": "function"
    },
    {
      "inputs": [
        {
          "internalType": "address",
          "name": "_addr",
          "type": "address"
        },
        {
          "internalType": "uint256",
          "name": "_tokenId",
          "type": "uint256"
        }
      ],
      "name": "isMinter",
      "outputs": [
        {
          "internalType": "bool",
          "name": "",
          "type": "bool"
        }
      ],
      "stateMutability": "view",
      "type": "function"
    },
    {
      "inputs": [
        {
          "internalType": "string",
          "name": "_waveData",
          "type": "string"
        },
        {
          "internalType": "address",
          "name": "_destination",
          "type": "address"
        }
      ],
      "name": "makeWave",
      "outputs": [],
      "stateMutability": "nonpayable",
      "type": "function"
    },
    {
      "inputs": [
        {
          "internalType": "address",
          "name": "",
          "type": "address"
        },
        {
          "internalType": "uint256",
          "name": "",
          "type": "uint256"
        }
      ],
      "name": "mintedByAddress",
      "outputs": [
        {
          "internalType": "uint256",
          "name": "",
          "type": "uint256"
        }
      ],
      "stateMutability": "view",
      "type": "function"
    },
    {
      "inputs": [
        {
          "internalType": "uint256",
          "name": "",
          "type": "uint256"
        }
      ],
      "name": "mintedById",
      "outputs": [
        {
          "internalType": "address",
          "name": "",
          "type": "address"
        }
      ],
      "stateMutability": "view",
      "type": "function"
    },
    {
      "inputs": [],
      "name": "name",
      "outputs": [
        {
          "internalType": "string",
          "name": "",
          "type": "string"
        }
      ],
      "stateMutability": "view",
      "type": "function"
    },
    {
      "inputs": [
        {
          "internalType": "uint256",
          "name": "tokenId",
          "type": "uint256"
        }
      ],
      "name": "ownerOf",
      "outputs": [
        {
          "internalType": "address",
          "name": "",
          "type": "address"
        }
      ],
      "stateMutability": "view",
      "type": "function"
    },
    {
      "inputs": [
        {
          "internalType": "uint256",
          "name": "_tokenId",
          "type": "uint256"
        }
      ],
      "name": "recoverWave",
      "outputs": [],
      "stateMutability": "nonpayable",
      "type": "function"
    },
    {
      "inputs": [
        {
          "internalType": "address",
          "name": "from",
          "type": "address"
        },
        {
          "internalType": "address",
          "name": "to",
          "type": "address"
        },
        {
          "internalType": "uint256",
          "name": "tokenId",
          "type": "uint256"
        }
      ],
      "name": "safeTransferFrom",
      "outputs": [],
      "stateMutability": "nonpayable",
      "type": "function"
    },
    {
      "inputs": [
        {
          "internalType": "address",
          "name": "from",
          "type": "address"
        },
        {
          "internalType": "address",
          "name": "to",
          "type": "address"
        },
        {
          "internalType": "uint256",
          "name": "tokenId",
          "type": "uint256"
        },
        {
          "internalType": "bytes",
          "name": "_data",
          "type": "bytes"
        }
      ],
      "name": "safeTransferFrom",
      "outputs": [],
      "stateMutability": "nonpayable",
      "type": "function"
    },
    {
      "inputs": [
        {
          "internalType": "address",
          "name": "operator",
          "type": "address"
        },
        {
          "internalType": "bool",
          "name": "approved",
          "type": "bool"
        }
      ],
      "name": "setApprovalForAll",
      "outputs": [],
      "stateMutability": "nonpayable",
      "type": "function"
    },
    {
      "inputs": [
        {
          "internalType": "bytes4",
          "name": "interfaceId",
          "type": "bytes4"
        }
      ],
      "name": "supportsInterface",
      "outputs": [
        {
          "internalType": "bool",
          "name": "",
          "type": "bool"
        }
      ],
      "stateMutability": "view",
      "type": "function"
    },
    {
      "inputs": [],
      "name": "symbol",
      "outputs": [
        {
          "internalType": "string",
          "name": "",
          "type": "string"
        }
      ],
      "stateMutability": "view",
      "type": "function"
    },
    {
      "inputs": [
        {
          "internalType": "uint256",
          "name": "tokenId",
          "type": "uint256"
        }
      ],
      "name": "tokenURI",
      "outputs": [
        {
          "internalType": "string",
          "name": "",
          "type": "string"
        }
      ],
      "stateMutability": "view",
      "type": "function"
    },
    {
      "inputs": [
        {
          "internalType": "address",
          "name": "from",
          "type": "address"
        },
        {
          "internalType": "address",
          "name": "to",
          "type": "address"
        },
        {
          "internalType": "uint256",
          "name": "tokenId",
          "type": "uint256"
        }
      ],
      "name": "transferFrom",
      "outputs": [],
      "stateMutability": "nonpayable",
      "type": "function"
    },
    {
      "inputs": [
        {
          "internalType": "address",
          "name": "_addr",
          "type": "address"
        }
      ],
      "name": "wavesMinted",
      "outputs": [
        {
          "internalType": "uint256[]",
          "name": "",
          "type": "uint256[]"
        }
      ],
      "stateMutability": "view",
      "type": "function"
    }
  ],
  "bytecode": "0x60806040523480156200001157600080fd5b506040518060400160405280600481526020017f57617665000000000000000000000000000000000000000000000000000000008152506040518060400160405280600481526020017f5741564500000000000000000000000000000000000000000000000000000000815250816000908051906020019062000096929190620001fc565b508060019080519060200190620000af929190620001fc565b505050620000fd6040518060400160405280601881526020017f7761766520636f6e747261637420697320616c697665212100000000000000008152506200011a60201b620014d81760201c565b620001146007620001bd60201b620015711760201c565b620003d9565b620001ba81604051602401620001319190620002ed565b6040516020818303038152906040527f41304fac000000000000000000000000000000000000000000000000000000007bffffffffffffffffffffffffffffffffffffffffffffffffffffffff19166020820180517bffffffffffffffffffffffffffffffffffffffffffffffffffffffff8381831617835250505050620001d360201b60201c565b50565b6001816000016000828254019250508190555050565b60008151905060006a636f6e736f6c652e6c6f679050602083016000808483855afa5050505050565b8280546200020a9062000363565b90600052602060002090601f0160209004810192826200022e57600085556200027a565b82601f106200024957805160ff19168380011785556200027a565b828001600101855582156200027a579182015b82811115620002795782518255916020019190600101906200025c565b5b5090506200028991906200028d565b5090565b5b80821115620002a85760008160009055506001016200028e565b5090565b6000620002b98262000311565b620002c581856200031c565b9350620002d78185602086016200032d565b620002e281620003c8565b840191505092915050565b60006020820190508181036000830152620003098184620002ac565b905092915050565b600081519050919050565b600082825260208201905092915050565b60005b838110156200034d57808201518184015260208101905062000330565b838111156200035d576000848401525b50505050565b600060028204905060018216806200037c57607f821691505b6020821081141562000393576200039262000399565b5b50919050565b7f4e487b7100000000000000000000000000000000000000000000000000000000600052602260045260246000fd5b6000601f19601f8301169050919050565b613ae980620003e96000396000f3fe608060405234801561001057600080fd5b506004361061012c5760003560e01c806342842e0e116100ad5780639dfa16c8116100715780639dfa16c814610379578063a22cb46514610395578063b88d4fde146103b1578063c87b56dd146103cd578063e985e9c5146103fd5761012c565b806342842e0e146102af57806363020f9b146102cb5780636352211e146102fb57806370a082311461032b57806395d89b411461035b5761012c565b80630ca8e6a1116100f45780630ca8e6a1146101fb57806323b872dd1461021757806334785a3b146102335780633810dd551461024f5780633bb8cff31461027f5761012c565b806301ffc9a714610131578063028b746f1461016157806306fdde0314610191578063081812fc146101af578063095ea7b3146101df575b600080fd5b61014b6004803603810190610146919061298f565b61042d565b604051610158919061335a565b60405180910390f35b61017b60048036038101906101769190612953565b61050f565b604051610188919061335a565b60405180910390f35b61019961057b565b6040516101a69190613375565b60405180910390f35b6101c960048036038101906101c49190612a35565b61060d565b6040516101d691906132a8565b60405180910390f35b6101f960048036038101906101f49190612953565b610692565b005b61021560048036038101906102109190612a35565b6107aa565b005b610231600480360381019061022c919061284d565b61089d565b005b61024d600480360381019061024891906129e1565b6108fd565b005b610269600480360381019061026491906127e8565b610a84565b6040516102769190613338565b60405180910390f35b61029960048036038101906102949190612953565b610b1b565b6040516102a69190613645565b60405180910390f35b6102c960048036038101906102c4919061284d565b610b4c565b005b6102e560048036038101906102e09190612a35565b610b6c565b6040516102f291906132a8565b60405180910390f35b61031560048036038101906103109190612a35565b610b9f565b60405161032291906132a8565b60405180910390f35b610345600480360381019061034091906127e8565b610c51565b6040516103529190613645565b60405180910390f35b610363610d09565b6040516103709190613375565b60405180910390f35b610393600480360381019061038e9190612a35565b610d9b565b005b6103af60048036038101906103aa9190612917565b61127a565b005b6103cb60048036038101906103c6919061289c565b611290565b005b6103e760048036038101906103e29190612a35565b6112f2565b6040516103f49190613375565b60405180910390f35b61041760048036038101906104129190612811565b611444565b604051610424919061335a565b60405180910390f35b60007f80ac58cd000000000000000000000000000000000000000000000000000000007bffffffffffffffffffffffffffffffffffffffffffffffffffffffff1916827bffffffffffffffffffffffffffffffffffffffffffffffffffffffff191614806104f857507f5b5e139f000000000000000000000000000000000000000000000000000000007bffffffffffffffffffffffffffffffffffffffffffffffffffffffff1916827bffffffffffffffffffffffffffffffffffffffffffffffffffffffff1916145b80610508575061050782611587565b5b9050919050565b60008273ffffffffffffffffffffffffffffffffffffffff166009600084815260200190815260200160002060009054906101000a900473ffffffffffffffffffffffffffffffffffffffff1673ffffffffffffffffffffffffffffffffffffffff1614905092915050565b60606000805461058a906138de565b80601f01602080910402602001604051908101604052809291908181526020018280546105b6906138de565b80156106035780601f106105d857610100808354040283529160200191610603565b820191906000526020600020905b8154815290600101906020018083116105e657829003601f168201915b5050505050905090565b6000610618826115f1565b610657576040517f08c379a000000000000000000000000000000000000000000000000000000000815260040161064e90613585565b60405180910390fd5b6004600083815260200190815260200160002060009054906101000a900473ffffffffffffffffffffffffffffffffffffffff169050919050565b600061069d82610b9f565b90508073ffffffffffffffffffffffffffffffffffffffff168373ffffffffffffffffffffffffffffffffffffffff16141561070e576040517f08c379a0000000000000000000000000000000000000000000000000000000008152600401610705906135e5565b60405180910390fd5b8073ffffffffffffffffffffffffffffffffffffffff1661072d61165d565b73ffffffffffffffffffffffffffffffffffffffff16148061075c575061075b8161075661165d565b611444565b5b61079b576040517f08c379a0000000000000000000000000000000000000000000000000000000008152600401610792906134c5565b60405180910390fd5b6107a58383611665565b505050565b6107b4338261050f565b6107f3576040517f08c379a00000000000000000000000000000000000000000000000000000000081526004016107ea90613625565b60405180910390fd5b60006107fe82610b9f565b90506108406040518060400160405280601681526020017f6f776e6572206f662069642025732069732025733a2000000000000000000000815250838361171e565b61084b8133846117bd565b600061085683610b9f565b90506108986040518060400160405280601a81526020017f6f776e6572206f66206964202573206973206e6f772025733a20000000000000815250848361171e565b505050565b6108ae6108a861165d565b82611a19565b6108ed576040517f08c379a00000000000000000000000000000000000000000000000000000000081526004016108e490613605565b60405180910390fd5b6108f88383836117bd565b505050565b60006109096007611af7565b905060008360405160200161091e919061326d565b60405160208183030381529060405290506109398383611b05565b600860003373ffffffffffffffffffffffffffffffffffffffff1673ffffffffffffffffffffffffffffffffffffffff168152602001908152602001600020829080600181540180825580915050600190039060005260206000200160009091909190915055336009600084815260200190815260200160002060006101000a81548173ffffffffffffffffffffffffffffffffffffffff021916908373ffffffffffffffffffffffffffffffffffffffff1602179055506109fb8282611b23565b610a056007611571565b610a456040518060400160405280601c81526020017f574156452077697468206964202573206d696e74656420746f20257300000000815250838561171e565b7f47d881617d36b37f490f9b09c1749d5f6766af6f979d09c1395ed09c191668488383604051610a7692919061330f565b60405180910390a150505050565b6060600860008373ffffffffffffffffffffffffffffffffffffffff1673ffffffffffffffffffffffffffffffffffffffff168152602001908152602001600020805480602002602001604051908101604052809291908181526020018280548015610b0f57602002820191906000526020600020905b815481526020019060010190808311610afb575b50505050509050919050565b60086020528160005260406000208181548110610b3757600080fd5b90600052602060002001600091509150505481565b610b6783838360405180602001604052806000815250611290565b505050565b60096020528060005260406000206000915054906101000a900473ffffffffffffffffffffffffffffffffffffffff1681565b6000806002600084815260200190815260200160002060009054906101000a900473ffffffffffffffffffffffffffffffffffffffff169050600073ffffffffffffffffffffffffffffffffffffffff168173ffffffffffffffffffffffffffffffffffffffff161415610c48576040517f08c379a0000000000000000000000000000000000000000000000000000000008152600401610c3f90613505565b60405180910390fd5b80915050919050565b60008073ffffffffffffffffffffffffffffffffffffffff168273ffffffffffffffffffffffffffffffffffffffff161415610cc2576040517f08c379a0000000000000000000000000000000000000000000000000000000008152600401610cb9906134e5565b60405180910390fd5b600360008373ffffffffffffffffffffffffffffffffffffffff1673ffffffffffffffffffffffffffffffffffffffff168152602001908152602001600020549050919050565b606060018054610d18906138de565b80601f0160208091040260200160405190810160405280929190818152602001828054610d44906138de565b8015610d915780601f10610d6657610100808354040283529160200191610d91565b820191906000526020600020905b815481529060010190602001808311610d7457829003601f168201915b5050505050905090565b610da5338261050f565b610de4576040517f08c379a0000000000000000000000000000000000000000000000000000000008152600401610ddb90613485565b60405180910390fd5b6000610def82610b9f565b9050610dfc8133846117bd565b610e0582611b97565b60005b6001600860003373ffffffffffffffffffffffffffffffffffffffff1673ffffffffffffffffffffffffffffffffffffffff16815260200190815260200160002080549050610e5791906137f4565b8110156112365782600860003373ffffffffffffffffffffffffffffffffffffffff1673ffffffffffffffffffffffffffffffffffffffff1681526020019081526020016000208281548110610ed6577f4e487b7100000000000000000000000000000000000000000000000000000000600052603260045260246000fd5b90600052602060002001541415611223576000600860003373ffffffffffffffffffffffffffffffffffffffff1673ffffffffffffffffffffffffffffffffffffffff1681526020019081526020016000206001600860003373ffffffffffffffffffffffffffffffffffffffff1673ffffffffffffffffffffffffffffffffffffffff16815260200190815260200160002080549050610f7791906137f4565b81548110610fae577f4e487b7100000000000000000000000000000000000000000000000000000000600052603260045260246000fd5b90600052602060002001549050600860003373ffffffffffffffffffffffffffffffffffffffff1673ffffffffffffffffffffffffffffffffffffffff1681526020019081526020016000208281548110611032577f4e487b7100000000000000000000000000000000000000000000000000000000600052603260045260246000fd5b9060005260206000200154600860003373ffffffffffffffffffffffffffffffffffffffff1673ffffffffffffffffffffffffffffffffffffffff1681526020019081526020016000206001600860003373ffffffffffffffffffffffffffffffffffffffff1673ffffffffffffffffffffffffffffffffffffffff168152602001908152602001600020805490506110cb91906137f4565b81548110611102577f4e487b7100000000000000000000000000000000000000000000000000000000600052603260045260246000fd5b906000526020600020018190555080600860003373ffffffffffffffffffffffffffffffffffffffff1673ffffffffffffffffffffffffffffffffffffffff1681526020019081526020016000208381548110611188577f4e487b7100000000000000000000000000000000000000000000000000000000600052603260045260246000fd5b9060005260206000200181905550600860003373ffffffffffffffffffffffffffffffffffffffff1673ffffffffffffffffffffffffffffffffffffffff16815260200190815260200160002080548061120b577f4e487b7100000000000000000000000000000000000000000000000000000000600052603160045260246000fd5b60019003818190600052602060002001600090559055505b808061122e90613910565b915050610e08565b506112766040518060400160405280600e81526020017f77617665202573206275726e656400000000000000000000000000000000000081525083611bea565b5050565b61128c61128561165d565b8383611c86565b5050565b6112a161129b61165d565b83611a19565b6112e0576040517f08c379a00000000000000000000000000000000000000000000000000000000081526004016112d790613605565b60405180910390fd5b6112ec84848484611df3565b50505050565b60606112fd826115f1565b61133c576040517f08c379a000000000000000000000000000000000000000000000000000000000815260040161133390613565565b60405180910390fd5b600060066000848152602001908152602001600020805461135c906138de565b80601f0160208091040260200160405190810160405280929190818152602001828054611388906138de565b80156113d55780601f106113aa576101008083540402835291602001916113d5565b820191906000526020600020905b8154815290600101906020018083116113b857829003601f168201915b5050505050905060006113e6611e4f565b90506000815114156113fc57819250505061143f565b600082511115611431578082604051602001611419929190613284565b6040516020818303038152906040529250505061143f565b61143a84611e66565b925050505b919050565b6000600560008473ffffffffffffffffffffffffffffffffffffffff1673ffffffffffffffffffffffffffffffffffffffff16815260200190815260200160002060008373ffffffffffffffffffffffffffffffffffffffff1673ffffffffffffffffffffffffffffffffffffffff16815260200190815260200160002060009054906101000a900460ff16905092915050565b61156e816040516024016114ec9190613375565b6040516020818303038152906040527f41304fac000000000000000000000000000000000000000000000000000000007bffffffffffffffffffffffffffffffffffffffffffffffffffffffff19166020820180517bffffffffffffffffffffffffffffffffffffffffffffffffffffffff8381831617835250505050611f0d565b50565b6001816000016000828254019250508190555050565b60007f01ffc9a7000000000000000000000000000000000000000000000000000000007bffffffffffffffffffffffffffffffffffffffffffffffffffffffff1916827bffffffffffffffffffffffffffffffffffffffffffffffffffffffff1916149050919050565b60008073ffffffffffffffffffffffffffffffffffffffff166002600084815260200190815260200160002060009054906101000a900473ffffffffffffffffffffffffffffffffffffffff1673ffffffffffffffffffffffffffffffffffffffff1614159050919050565b600033905090565b816004600083815260200190815260200160002060006101000a81548173ffffffffffffffffffffffffffffffffffffffff021916908373ffffffffffffffffffffffffffffffffffffffff160217905550808273ffffffffffffffffffffffffffffffffffffffff166116d883610b9f565b73ffffffffffffffffffffffffffffffffffffffff167f8c5be1e5ebec7d5bd14f71427d1e84f3dd0314c0f7b2291e5b200ac8c7c3b92560405160405180910390a45050565b6117b8838383604051602401611736939291906133c7565b6040516020818303038152906040527fe3849f79000000000000000000000000000000000000000000000000000000007bffffffffffffffffffffffffffffffffffffffffffffffffffffffff19166020820180517bffffffffffffffffffffffffffffffffffffffffffffffffffffffff8381831617835250505050611f0d565b505050565b8273ffffffffffffffffffffffffffffffffffffffff166117dd82610b9f565b73ffffffffffffffffffffffffffffffffffffffff1614611833576040517f08c379a000000000000000000000000000000000000000000000000000000000815260040161182a906135a5565b60405180910390fd5b600073ffffffffffffffffffffffffffffffffffffffff168273ffffffffffffffffffffffffffffffffffffffff1614156118a3576040517f08c379a000000000000000000000000000000000000000000000000000000000815260040161189a90613445565b60405180910390fd5b6118ae838383611f36565b6118b9600082611665565b6001600360008573ffffffffffffffffffffffffffffffffffffffff1673ffffffffffffffffffffffffffffffffffffffff168152602001908152602001600020600082825461190991906137f4565b925050819055506001600360008473ffffffffffffffffffffffffffffffffffffffff1673ffffffffffffffffffffffffffffffffffffffff1681526020019081526020016000206000828254611960919061376d565b92505081905550816002600083815260200190815260200160002060006101000a81548173ffffffffffffffffffffffffffffffffffffffff021916908373ffffffffffffffffffffffffffffffffffffffff160217905550808273ffffffffffffffffffffffffffffffffffffffff168473ffffffffffffffffffffffffffffffffffffffff167fddf252ad1be2c89b69c2b068fc378daa952ba7f163c4a11628f55a4df523b3ef60405160405180910390a4505050565b6000611a24826115f1565b611a63576040517f08c379a0000000000000000000000000000000000000000000000000000000008152600401611a5a906134a5565b60405180910390fd5b6000611a6e83610b9f565b90508073ffffffffffffffffffffffffffffffffffffffff168473ffffffffffffffffffffffffffffffffffffffff161480611add57508373ffffffffffffffffffffffffffffffffffffffff16611ac58461060d565b73ffffffffffffffffffffffffffffffffffffffff16145b80611aee5750611aed8185611444565b5b91505092915050565b600081600001549050919050565b611b1f828260405180602001604052806000815250611f3b565b5050565b611b2c826115f1565b611b6b576040517f08c379a0000000000000000000000000000000000000000000000000000000008152600401611b6290613525565b60405180910390fd5b80600660008481526020019081526020016000209080519060200190611b929291906125cc565b505050565b611ba081611f96565b6000600660008381526020019081526020016000208054611bc0906138de565b905014611be757600660008281526020019081526020016000206000611be69190612652565b5b50565b611c828282604051602401611c00929190613397565b6040516020818303038152906040527f9710a9d0000000000000000000000000000000000000000000000000000000007bffffffffffffffffffffffffffffffffffffffffffffffffffffffff19166020820180517bffffffffffffffffffffffffffffffffffffffffffffffffffffffff8381831617835250505050611f0d565b5050565b8173ffffffffffffffffffffffffffffffffffffffff168373ffffffffffffffffffffffffffffffffffffffff161415611cf5576040517f08c379a0000000000000000000000000000000000000000000000000000000008152600401611cec90613465565b60405180910390fd5b80600560008573ffffffffffffffffffffffffffffffffffffffff1673ffffffffffffffffffffffffffffffffffffffff16815260200190815260200160002060008473ffffffffffffffffffffffffffffffffffffffff1673ffffffffffffffffffffffffffffffffffffffff16815260200190815260200160002060006101000a81548160ff0219169083151502179055508173ffffffffffffffffffffffffffffffffffffffff168373ffffffffffffffffffffffffffffffffffffffff167f17307eab39ab6107e8899845ad3d59bd9653f200f220920489ca2b5937696c3183604051611de6919061335a565b60405180910390a3505050565b611dfe8484846117bd565b611e0a848484846120a7565b611e49576040517f08c379a0000000000000000000000000000000000000000000000000000000008152600401611e4090613405565b60405180910390fd5b50505050565b606060405180602001604052806000815250905090565b6060611e71826115f1565b611eb0576040517f08c379a0000000000000000000000000000000000000000000000000000000008152600401611ea7906135c5565b60405180910390fd5b6000611eba611e4f565b90506000815111611eda5760405180602001604052806000815250611f05565b80611ee48461223e565b604051602001611ef5929190613284565b6040516020818303038152906040525b915050919050565b60008151905060006a636f6e736f6c652e6c6f679050602083016000808483855afa5050505050565b505050565b611f4583836123eb565b611f5260008484846120a7565b611f91576040517f08c379a0000000000000000000000000000000000000000000000000000000008152600401611f8890613405565b60405180910390fd5b505050565b6000611fa182610b9f565b9050611faf81600084611f36565b611fba600083611665565b6001600360008373ffffffffffffffffffffffffffffffffffffffff1673ffffffffffffffffffffffffffffffffffffffff168152602001908152602001600020600082825461200a91906137f4565b925050819055506002600083815260200190815260200160002060006101000a81549073ffffffffffffffffffffffffffffffffffffffff021916905581600073ffffffffffffffffffffffffffffffffffffffff168273ffffffffffffffffffffffffffffffffffffffff167fddf252ad1be2c89b69c2b068fc378daa952ba7f163c4a11628f55a4df523b3ef60405160405180910390a45050565b60006120c88473ffffffffffffffffffffffffffffffffffffffff166125b9565b15612231578373ffffffffffffffffffffffffffffffffffffffff1663150b7a026120f161165d565b8786866040518563ffffffff1660e01b815260040161211394939291906132c3565b602060405180830381600087803b15801561212d57600080fd5b505af192505050801561215e57506040513d601f19601f8201168201806040525081019061215b91906129b8565b60015b6121e1573d806000811461218e576040519150601f19603f3d011682016040523d82523d6000602084013e612193565b606091505b506000815114156121d9576040517f08c379a00000000000000000000000000000000000000000000000000000000081526004016121d090613405565b60405180910390fd5b805181602001fd5b63150b7a0260e01b7bffffffffffffffffffffffffffffffffffffffffffffffffffffffff1916817bffffffffffffffffffffffffffffffffffffffffffffffffffffffff191614915050612236565b600190505b949350505050565b60606000821415612286576040518060400160405280600181526020017f300000000000000000000000000000000000000000000000000000000000000081525090506123e6565b600082905060005b600082146122b85780806122a190613910565b915050600a826122b191906137c3565b915061228e565b60008167ffffffffffffffff8111156122fa577f4e487b7100000000000000000000000000000000000000000000000000000000600052604160045260246000fd5b6040519080825280601f01601f19166020018201604052801561232c5781602001600182028036833780820191505090505b5090505b600085146123df5760018261234591906137f4565b9150600a856123549190613959565b6030612360919061376d565b60f81b81838151811061239c577f4e487b7100000000000000000000000000000000000000000000000000000000600052603260045260246000fd5b60200101907effffffffffffffffffffffffffffffffffffffffffffffffffffffffffffff1916908160001a905350600a856123d891906137c3565b9450612330565b8093505050505b919050565b600073ffffffffffffffffffffffffffffffffffffffff168273ffffffffffffffffffffffffffffffffffffffff16141561245b576040517f08c379a000000000000000000000000000000000000000000000000000000000815260040161245290613545565b60405180910390fd5b612464816115f1565b156124a4576040517f08c379a000000000000000000000000000000000000000000000000000000000815260040161249b90613425565b60405180910390fd5b6124b060008383611f36565b6001600360008473ffffffffffffffffffffffffffffffffffffffff1673ffffffffffffffffffffffffffffffffffffffff1681526020019081526020016000206000828254612500919061376d565b92505081905550816002600083815260200190815260200160002060006101000a81548173ffffffffffffffffffffffffffffffffffffffff021916908373ffffffffffffffffffffffffffffffffffffffff160217905550808273ffffffffffffffffffffffffffffffffffffffff16600073ffffffffffffffffffffffffffffffffffffffff167fddf252ad1be2c89b69c2b068fc378daa952ba7f163c4a11628f55a4df523b3ef60405160405180910390a45050565b600080823b905060008111915050919050565b8280546125d8906138de565b90600052602060002090601f0160209004810192826125fa5760008555612641565b82601f1061261357805160ff1916838001178555612641565b82800160010185558215612641579182015b82811115612640578251825591602001919060010190612625565b5b50905061264e9190612692565b5090565b50805461265e906138de565b6000825580601f10612670575061268f565b601f01602090049060005260206000209081019061268e9190612692565b5b50565b5b808211156126ab576000816000905550600101612693565b5090565b60006126c26126bd84613691565b613660565b9050828152602081018484840111156126da57600080fd5b6126e584828561389c565b509392505050565b60006127006126fb846136c1565b613660565b90508281526020810184848401111561271857600080fd5b61272384828561389c565b509392505050565b60008135905061273a81613a57565b92915050565b60008135905061274f81613a6e565b92915050565b60008135905061276481613a85565b92915050565b60008151905061277981613a85565b92915050565b600082601f83011261279057600080fd5b81356127a08482602086016126af565b91505092915050565b600082601f8301126127ba57600080fd5b81356127ca8482602086016126ed565b91505092915050565b6000813590506127e281613a9c565b92915050565b6000602082840312156127fa57600080fd5b60006128088482850161272b565b91505092915050565b6000806040838503121561282457600080fd5b60006128328582860161272b565b92505060206128438582860161272b565b9150509250929050565b60008060006060848603121561286257600080fd5b60006128708682870161272b565b93505060206128818682870161272b565b9250506040612892868287016127d3565b9150509250925092565b600080600080608085870312156128b257600080fd5b60006128c08782880161272b565b94505060206128d18782880161272b565b93505060406128e2878288016127d3565b925050606085013567ffffffffffffffff8111156128ff57600080fd5b61290b8782880161277f565b91505092959194509250565b6000806040838503121561292a57600080fd5b60006129388582860161272b565b925050602061294985828601612740565b9150509250929050565b6000806040838503121561296657600080fd5b60006129748582860161272b565b9250506020612985858286016127d3565b9150509250929050565b6000602082840312156129a157600080fd5b60006129af84828501612755565b91505092915050565b6000602082840312156129ca57600080fd5b60006129d88482850161276a565b91505092915050565b600080604083850312156129f457600080fd5b600083013567ffffffffffffffff811115612a0e57600080fd5b612a1a858286016127a9565b9250506020612a2b8582860161272b565b9150509250929050565b600060208284031215612a4757600080fd5b6000612a55848285016127d3565b91505092915050565b6000612a6a838361324f565b60208301905092915050565b612a7f81613828565b82525050565b6000612a9082613701565b612a9a818561372f565b9350612aa5836136f1565b8060005b83811015612ad6578151612abd8882612a5e565b9750612ac883613722565b925050600181019050612aa9565b5085935050505092915050565b612aec8161383a565b82525050565b6000612afd8261370c565b612b078185613740565b9350612b178185602086016138ab565b612b2081613a46565b840191505092915050565b6000612b3682613717565b612b408185613751565b9350612b508185602086016138ab565b612b5981613a46565b840191505092915050565b6000612b6f82613717565b612b798185613762565b9350612b898185602086016138ab565b80840191505092915050565b6000612ba2603283613751565b91507f4552433732313a207472616e7366657220746f206e6f6e20455243373231526560008301527f63656976657220696d706c656d656e74657200000000000000000000000000006020830152604082019050919050565b6000612c08601c83613751565b91507f4552433732313a20746f6b656e20616c7265616479206d696e746564000000006000830152602082019050919050565b6000612c48602483613751565b91507f4552433732313a207472616e7366657220746f20746865207a65726f2061646460008301527f72657373000000000000000000000000000000000000000000000000000000006020830152604082019050919050565b6000612cae601983613751565b91507f4552433732313a20617070726f766520746f2063616c6c6572000000000000006000830152602082019050919050565b6000612cee602183613751565b91507f6f6e6c7920746865206d696e74696e6720616464726573732063616e2062757260008301527f6e000000000000000000000000000000000000000000000000000000000000006020830152604082019050919050565b6000612d54602c83613751565b91507f4552433732313a206f70657261746f7220717565727920666f72206e6f6e657860008301527f697374656e7420746f6b656e00000000000000000000000000000000000000006020830152604082019050919050565b6000612dba603883613751565b91507f4552433732313a20617070726f76652063616c6c6572206973206e6f74206f7760008301527f6e6572206e6f7220617070726f76656420666f7220616c6c00000000000000006020830152604082019050919050565b6000612e20602a83613751565b91507f4552433732313a2062616c616e636520717565727920666f7220746865207a6560008301527f726f2061646472657373000000000000000000000000000000000000000000006020830152604082019050919050565b6000612e86602983613751565b91507f4552433732313a206f776e657220717565727920666f72206e6f6e657869737460008301527f656e7420746f6b656e00000000000000000000000000000000000000000000006020830152604082019050919050565b6000612eec602e83613751565b91507f45524337323155524953746f726167653a2055524920736574206f66206e6f6e60008301527f6578697374656e7420746f6b656e0000000000000000000000000000000000006020830152604082019050919050565b6000612f52602083613751565b91507f4552433732313a206d696e7420746f20746865207a65726f20616464726573736000830152602082019050919050565b6000612f92603183613751565b91507f45524337323155524953746f726167653a2055524920717565727920666f722060008301527f6e6f6e6578697374656e7420746f6b656e0000000000000000000000000000006020830152604082019050919050565b6000612ff8602c83613751565b91507f4552433732313a20617070726f76656420717565727920666f72206e6f6e657860008301527f697374656e7420746f6b656e00000000000000000000000000000000000000006020830152604082019050919050565b600061305e602983613751565b91507f4552433732313a207472616e73666572206f6620746f6b656e2074686174206960008301527f73206e6f74206f776e00000000000000000000000000000000000000000000006020830152604082019050919050565b60006130c4602f83613751565b91507f4552433732314d657461646174613a2055524920717565727920666f72206e6f60008301527f6e6578697374656e7420746f6b656e00000000000000000000000000000000006020830152604082019050919050565b600061312a602183613751565b91507f4552433732313a20617070726f76616c20746f2063757272656e74206f776e6560008301527f72000000000000000000000000000000000000000000000000000000000000006020830152604082019050919050565b6000613190603183613751565b91507f4552433732313a207472616e736665722063616c6c6572206973206e6f74206f60008301527f776e6572206e6f7220617070726f7665640000000000000000000000000000006020830152604082019050919050565b60006131f6602483613751565b91507f6f6e6c7920746865206d696e74696e6720616464726573732063616e2072656360008301527f6f766572000000000000000000000000000000000000000000000000000000006020830152604082019050919050565b61325881613892565b82525050565b61326781613892565b82525050565b60006132798284612b64565b915081905092915050565b60006132908285612b64565b915061329c8284612b64565b91508190509392505050565b60006020820190506132bd6000830184612a76565b92915050565b60006080820190506132d86000830187612a76565b6132e56020830186612a76565b6132f2604083018561325e565b81810360608301526133048184612af2565b905095945050505050565b60006040820190506133246000830185612a76565b613331602083018461325e565b9392505050565b600060208201905081810360008301526133528184612a85565b905092915050565b600060208201905061336f6000830184612ae3565b92915050565b6000602082019050818103600083015261338f8184612b2b565b905092915050565b600060408201905081810360008301526133b18185612b2b565b90506133c0602083018461325e565b9392505050565b600060608201905081810360008301526133e18186612b2b565b90506133f0602083018561325e565b6133fd6040830184612a76565b949350505050565b6000602082019050818103600083015261341e81612b95565b9050919050565b6000602082019050818103600083015261343e81612bfb565b9050919050565b6000602082019050818103600083015261345e81612c3b565b9050919050565b6000602082019050818103600083015261347e81612ca1565b9050919050565b6000602082019050818103600083015261349e81612ce1565b9050919050565b600060208201905081810360008301526134be81612d47565b9050919050565b600060208201905081810360008301526134de81612dad565b9050919050565b600060208201905081810360008301526134fe81612e13565b9050919050565b6000602082019050818103600083015261351e81612e79565b9050919050565b6000602082019050818103600083015261353e81612edf565b9050919050565b6000602082019050818103600083015261355e81612f45565b9050919050565b6000602082019050818103600083015261357e81612f85565b9050919050565b6000602082019050818103600083015261359e81612feb565b9050919050565b600060208201905081810360008301526135be81613051565b9050919050565b600060208201905081810360008301526135de816130b7565b9050919050565b600060208201905081810360008301526135fe8161311d565b9050919050565b6000602082019050818103600083015261361e81613183565b9050919050565b6000602082019050818103600083015261363e816131e9565b9050919050565b600060208201905061365a600083018461325e565b92915050565b6000604051905081810181811067ffffffffffffffff8211171561368757613686613a17565b5b8060405250919050565b600067ffffffffffffffff8211156136ac576136ab613a17565b5b601f19601f8301169050602081019050919050565b600067ffffffffffffffff8211156136dc576136db613a17565b5b601f19601f8301169050602081019050919050565b6000819050602082019050919050565b600081519050919050565b600081519050919050565b600081519050919050565b6000602082019050919050565b600082825260208201905092915050565b600082825260208201905092915050565b600082825260208201905092915050565b600081905092915050565b600061377882613892565b915061378383613892565b9250827fffffffffffffffffffffffffffffffffffffffffffffffffffffffffffffffff038211156137b8576137b761398a565b5b828201905092915050565b60006137ce82613892565b91506137d983613892565b9250826137e9576137e86139b9565b5b828204905092915050565b60006137ff82613892565b915061380a83613892565b92508282101561381d5761381c61398a565b5b828203905092915050565b600061383382613872565b9050919050565b60008115159050919050565b60007fffffffff0000000000000000000000000000000000000000000000000000000082169050919050565b600073ffffffffffffffffffffffffffffffffffffffff82169050919050565b6000819050919050565b82818337600083830152505050565b60005b838110156138c95780820151818401526020810190506138ae565b838111156138d8576000848401525b50505050565b600060028204905060018216806138f657607f821691505b6020821081141561390a576139096139e8565b5b50919050565b600061391b82613892565b91507fffffffffffffffffffffffffffffffffffffffffffffffffffffffffffffffff82141561394e5761394d61398a565b5b600182019050919050565b600061396482613892565b915061396f83613892565b92508261397f5761397e6139b9565b5b828206905092915050565b7f4e487b7100000000000000000000000000000000000000000000000000000000600052601160045260246000fd5b7f4e487b7100000000000000000000000000000000000000000000000000000000600052601260045260246000fd5b7f4e487b7100000000000000000000000000000000000000000000000000000000600052602260045260246000fd5b7f4e487b7100000000000000000000000000000000000000000000000000000000600052604160045260246000fd5b6000601f19601f8301169050919050565b613a6081613828565b8114613a6b57600080fd5b50565b613a778161383a565b8114613a8257600080fd5b50565b613a8e81613846565b8114613a9957600080fd5b50565b613aa581613892565b8114613ab057600080fd5b5056fea264697066735822122001c0560df7d35f64e659d6495c734bcd4a99cf203281888c1524e32d5bb7548a64736f6c63430008000033",
  "linkReferences": {},
  "deployedLinkReferences": {}
}